{
  "address": "0x67f67859B1F03e556d6c10344713a1b5eB7c8160",
  "abi": [
    {
      "inputs": [
        {
          "internalType": "address",
          "name": "_ohGeez",
          "type": "address"
        },
        {
          "internalType": "address",
          "name": "_levx",
          "type": "address"
        },
        {
          "internalType": "contract IUniswapV2Router01",
          "name": "_router",
          "type": "address"
        },
        {
          "internalType": "contract ISwapper",
          "name": "_swapper",
          "type": "address"
        }
      ],
      "stateMutability": "nonpayable",
      "type": "constructor"
    },
    {
      "inputs": [],
      "name": "factory",
      "outputs": [
        {
          "internalType": "address",
          "name": "",
          "type": "address"
        }
      ],
      "stateMutability": "view",
      "type": "function"
    },
    {
      "inputs": [],
      "name": "levx",
      "outputs": [
        {
          "internalType": "address",
          "name": "",
          "type": "address"
        }
      ],
      "stateMutability": "view",
      "type": "function"
    },
    {
      "inputs": [
        {
          "internalType": "uint256",
          "name": "liquidity",
          "type": "uint256"
        },
        {
          "internalType": "uint256",
          "name": "amountWethAddedMin",
          "type": "uint256"
        },
        {
          "internalType": "uint256",
          "name": "deadline",
          "type": "uint256"
        },
        {
          "internalType": "address",
          "name": "to",
          "type": "address"
        }
      ],
      "name": "migrate",
      "outputs": [],
      "stateMutability": "nonpayable",
      "type": "function"
    },
    {
      "inputs": [
        {
          "internalType": "uint256",
          "name": "liquidity",
          "type": "uint256"
        },
        {
          "internalType": "uint256",
          "name": "amountWethAddedMin",
          "type": "uint256"
        },
        {
          "internalType": "uint256",
          "name": "deadline",
          "type": "uint256"
        },
        {
          "internalType": "address",
          "name": "to",
          "type": "address"
        },
        {
          "internalType": "uint8",
          "name": "v",
          "type": "uint8"
        },
        {
          "internalType": "bytes32",
          "name": "r",
          "type": "bytes32"
        },
        {
          "internalType": "bytes32",
          "name": "s",
          "type": "bytes32"
        }
      ],
      "name": "migrateWithPermit",
      "outputs": [],
      "stateMutability": "nonpayable",
      "type": "function"
    },
    {
      "inputs": [],
      "name": "ohGeez",
      "outputs": [
        {
          "internalType": "address",
          "name": "",
          "type": "address"
        }
      ],
      "stateMutability": "view",
      "type": "function"
    },
    {
      "inputs": [],
      "name": "swapper",
      "outputs": [
        {
          "internalType": "contract ISwapper",
          "name": "",
          "type": "address"
        }
      ],
      "stateMutability": "view",
      "type": "function"
    },
    {
      "inputs": [],
      "name": "weth",
      "outputs": [
        {
          "internalType": "address",
          "name": "",
          "type": "address"
        }
      ],
      "stateMutability": "view",
      "type": "function"
    }
  ],
  "transactionHash": "0xb707261481f2559b1197b5e33959a38edcfc4e9494ebcebe2eebfebe41e7891e",
  "args": [
    "0x1098269bfc70b26dea43f18f812d2b9854e874ba",
    "0xf474E526ADe9aD2CC2B66ffCE528B1A51B91FCdC",
    "0xd9e1cE17f2641f24aE83637ab66a2cca9C378B9F",
    "0xA304c7Ef74BA1638a42ef1AB9d7f62e66A220F3a"
  ],
  "solcInputHash": "8069c3bc764395c1efc3b30c707130c7",
  "bytecode": "0x6101206040523480156200001257600080fd5b50604051620016ad380380620016ad8339810160408190526200003591620001a7565b6001600160601b0319606085811b821660805284901b1660a052604080516315ab88c960e31b815290516001600160a01b0384169163ad5c4648916004808301926020929190829003018186803b1580156200009057600080fd5b505afa158015620000a5573d6000803e3d6000fd5b505050506040513d601f19601f82011682018060405250810190620000cb919062000181565b6001600160a01b031660c0816001600160a01b031660601b81525050816001600160a01b031663c45a01556040518163ffffffff1660e01b815260040160206040518083038186803b1580156200012157600080fd5b505afa15801562000136573d6000803e3d6000fd5b505050506040513d601f19601f820116820180604052508101906200015c919062000181565b6001600160601b0319606091821b811660e05291901b16610100525062000227915050565b60006020828403121562000193578081fd5b8151620001a0816200020e565b9392505050565b60008060008060808587031215620001bd578283fd5b8451620001ca816200020e565b6020860151909450620001dd816200020e565b6040860151909350620001f0816200020e565b606086015190925062000203816200020e565b939692955090935050565b6001600160a01b03811681146200022457600080fd5b50565b60805160601c60a05160601c60c05160601c60e05160601c6101005160601c6113d3620002da6000396000818160ca015281816102360152610306015260008181610167015281816104dd015281816105ea0152818161081b0152610b4601526000818160f1015281816101f7015281816103a8015281816104a6015261051f01526000818161011801526103860152600081816087015281816101d60152818161026b01526104fe01526113d36000f3fe608060405234801561001057600080fd5b506004361061007d5760003560e01c806362df34721161005b57806362df34721461011357806380da63411461013a578063b95107871461014f578063c45a0155146101625761007d565b806307129574146100825780632b3297f9146100c55780633fc8cef3146100ec575b600080fd5b6100a97f000000000000000000000000000000000000000000000000000000000000000081565b6040516001600160a01b03909116815260200160405180910390f35b6100a97f000000000000000000000000000000000000000000000000000000000000000081565b6100a97f000000000000000000000000000000000000000000000000000000000000000081565b6100a97f000000000000000000000000000000000000000000000000000000000000000081565b61014d6101483660046111ee565b610189565b005b61014d61015d36600461122e565b6104d6565b6100a97f000000000000000000000000000000000000000000000000000000000000000081565b428210156101ce5760405162461bcd60e51b815260206004820152600d60248201526c131155960e8811561412549151609a1b60448201526064015b60405180910390fd5b60008061021f7f00000000000000000000000000000000000000000000000000000000000000007f0000000000000000000000000000000000000000000000000000000000000000886000806105e0565b60405163095ea7b360e01b81526001600160a01b037f000000000000000000000000000000000000000000000000000000000000000081166004830152602482018490529294509092507f00000000000000000000000000000000000000000000000000000000000000009091169063095ea7b390604401602060405180830381600087803b1580156102b157600080fd5b505af11580156102c5573d6000803e3d6000fd5b505050506040513d601f19601f820116820180604052508101906102e99190611145565b50604051631a730de160e31b8152600481018390523060248201527f00000000000000000000000000000000000000000000000000000000000000006001600160a01b03169063d3986f0890604401600060405180830381600087803b15801561035257600080fd5b505af1158015610366573d6000803e3d6000fd5b50506040516370a0823160e01b81523060048201526000925061043391507f0000000000000000000000000000000000000000000000000000000000000000907f0000000000000000000000000000000000000000000000000000000000000000906001600160a01b038316906370a082319060240160206040518083038186803b1580156103f457600080fd5b505afa158015610408573d6000803e3d6000fd5b505050506040513d601f19601f8201168201806040525081019061042c91906111b3565b8588610800565b915050858110156104865760405162461bcd60e51b815260206004820152601b60248201527f4c4556583a204e4f545f454e4f5547485f574554485f4144444544000000000060448201526064016101c5565b808211156104cd576104cd8461049c8385611328565b6001600160a01b037f00000000000000000000000000000000000000000000000000000000000000001691906108f2565b50505050505050565b60006105437f00000000000000000000000000000000000000000000000000000000000000007f00000000000000000000000000000000000000000000000000000000000000007f0000000000000000000000000000000000000000000000000000000000000000610949565b60405163d505accf60e01b8152336004820152306024820152604481018a90526064810188905260ff8616608482015260a4810185905260c481018490529091506001600160a01b0382169063d505accf9060e401600060405180830381600087803b1580156105b257600080fd5b505af11580156105c6573d6000803e3d6000fd5b505050506105d688888888610189565b5050505050505050565b60008060006106107f00000000000000000000000000000000000000000000000000000000000000008989610949565b6040516323b872dd60e01b81523360048201526001600160a01b03821660248201819052604482018990529192506323b872dd90606401602060405180830381600087803b15801561066157600080fd5b505af1158015610675573d6000803e3d6000fd5b505050506040513d601f19601f820116820180604052508101906106999190611145565b5060405163226bf2d160e21b815230600482015260009081906001600160a01b038416906389afcb44906024016040805180830381600087803b1580156106df57600080fd5b505af11580156106f3573d6000803e3d6000fd5b505050506040513d601f19601f8201168201806040525081019061071791906111cb565b9150915060006107278b8b610a22565b509050806001600160a01b03168b6001600160a01b03161461074a57818361074d565b82825b9096509450878610156107a25760405162461bcd60e51b815260206004820152601b60248201527f4c4556583a20494e53554646494349454e545f415f414d4f554e54000000000060448201526064016101c5565b868510156107f25760405162461bcd60e51b815260206004820152601b60248201527f4c4556583a20494e53554646494349454e545f425f414d4f554e54000000000060448201526064016101c5565b505050509550959350505050565b60008061080f87878787610b1a565b909250905060006108417f00000000000000000000000000000000000000000000000000000000000000008989610949565b90506108576001600160a01b03891682856108f2565b61086b6001600160a01b03881682846108f2565b6040516335313c2160e11b81526001600160a01b038581166004830152821690636a62784290602401602060405180830381600087803b1580156108ae57600080fd5b505af11580156108c2573d6000803e3d6000fd5b505050506040513d601f19601f820116820180604052508101906108e691906111b3565b50509550959350505050565b604080516001600160a01b038416602482015260448082018490528251808303909101815260649091019091526020810180516001600160e01b031663a9059cbb60e01b179052610944908490610cea565b505050565b60008060006109588585610a22565b6040516bffffffffffffffffffffffff19606084811b8216602084015283901b1660348201529193509150869060480160405160208183030381529060405280519060200120604051602001610a009291906001600160f81b0319815260609290921b6bffffffffffffffffffffffff1916600183015260158201527fe18a34eb0e04b04f7a0ac29a6e80748dca96319b42c54d679cb821dca90c6303603582015260550190565b60408051601f1981840301815291905280516020909101209695505050505050565b600080826001600160a01b0316846001600160a01b03161415610a955760405162461bcd60e51b815260206004820152602560248201527f556e697377617056324c6962726172793a204944454e544943414c5f41444452604482015264455353455360d81b60648201526084016101c5565b826001600160a01b0316846001600160a01b031610610ab5578284610ab8565b83835b90925090506001600160a01b038216610b135760405162461bcd60e51b815260206004820152601e60248201527f556e697377617056324c6962726172793a205a45524f5f41444452455353000060448201526064016101c5565b9250929050565b60405163e6a4390560e01b81526001600160a01b038581166004830152848116602483015260009182917f000000000000000000000000000000000000000000000000000000000000000091839183169063e6a439059060440160206040518083038186803b158015610b8c57600080fd5b505afa158015610ba0573d6000803e3d6000fd5b505050506040513d601f19601f82011682018060405250810190610bc49190611129565b6001600160a01b03161415610c58576040516364e329cb60e11b81526001600160a01b038881166004830152878116602483015282169063c9c6539690604401602060405180830381600087803b158015610c1e57600080fd5b505af1158015610c32573d6000803e3d6000fd5b505050506040513d601f19601f82011682018060405250810190610c569190611129565b505b600080610c66838a8a610dbc565b91509150816000148015610c78575080155b15610c8857869450859350610cde565b6000610c95888484610e95565b9050868111610ca957879550935083610cdc565b6000610cb6888486610e95565b905088811115610cd657634e487b7160e01b600052600160045260246000fd5b95508694505b505b50505094509492505050565b6000610d3f826040518060400160405280602081526020017f5361666545524332303a206c6f772d6c6576656c2063616c6c206661696c6564815250856001600160a01b0316610f7e9092919063ffffffff16565b8051909150156109445780806020019051810190610d5d9190611145565b6109445760405162461bcd60e51b815260206004820152602a60248201527f5361666545524332303a204552433230206f7065726174696f6e20646964206e6044820152691bdd081cdd58d8d9595960b21b60648201526084016101c5565b6000806000610dcb8585610a22565b509050600080610ddc888888610949565b6001600160a01b0316630902f1ac6040518163ffffffff1660e01b815260040160606040518083038186803b158015610e1457600080fd5b505afa158015610e28573d6000803e3d6000fd5b505050506040513d601f19601f82011682018060405250810190610e4c9190611165565b506001600160701b031691506001600160701b03169150826001600160a01b0316876001600160a01b031614610e83578082610e86565b81815b90999098509650505050505050565b6000808411610ef45760405162461bcd60e51b815260206004820152602560248201527f556e697377617056324c6962726172793a20494e53554646494349454e545f416044820152641353d5539560da1b60648201526084016101c5565b600083118015610f045750600082115b610f615760405162461bcd60e51b815260206004820152602860248201527f556e697377617056324c6962726172793a20494e53554646494349454e545f4c604482015267495155494449545960c01b60648201526084016101c5565b82610f6c8584610f94565b610f7691906112e9565b949350505050565b6060610f768484600085610fa0565b9392505050565b6000610f8d8284611309565b6060824710156110015760405162461bcd60e51b815260206004820152602660248201527f416464726573733a20696e73756666696369656e742062616c616e636520666f6044820152651c8818d85b1b60d21b60648201526084016101c5565b61100a856110cf565b6110565760405162461bcd60e51b815260206004820152601d60248201527f416464726573733a2063616c6c20746f206e6f6e2d636f6e747261637400000060448201526064016101c5565b600080866001600160a01b03168587604051611072919061129a565b60006040518083038185875af1925050503d80600081146110af576040519150601f19603f3d011682016040523d82523d6000602084013e6110b4565b606091505b50915091506110c48282866110d9565b979650505050505050565b803b15155b919050565b606083156110e8575081610f8d565b8251156110f85782518084602001fd5b8160405162461bcd60e51b81526004016101c591906112b6565b80516001600160701b03811681146110d457600080fd5b60006020828403121561113a578081fd5b8151610f8d81611385565b600060208284031215611156578081fd5b81518015158114610f8d578182fd5b600080600060608486031215611179578182fd5b61118284611112565b925061119060208501611112565b9150604084015163ffffffff811681146111a8578182fd5b809150509250925092565b6000602082840312156111c4578081fd5b5051919050565b600080604083850312156111dd578182fd5b505080516020909101519092909150565b60008060008060808587031215611203578081fd5b843593506020850135925060408501359150606085013561122381611385565b939692955090935050565b600080600080600080600060e0888a031215611248578283fd5b873596506020880135955060408801359450606088013561126881611385565b9350608088013560ff8116811461127d578384fd5b9699959850939692959460a0840135945060c09093013592915050565b600082516112ac81846020870161133f565b9190910192915050565b60006020825282518060208401526112d581604085016020870161133f565b601f01601f19169190910160400192915050565b60008261130457634e487b7160e01b81526012600452602481fd5b500490565b60008160001904831182151516156113235761132361136f565b500290565b60008282101561133a5761133a61136f565b500390565b60005b8381101561135a578181015183820152602001611342565b83811115611369576000848401525b50505050565b634e487b7160e01b600052601160045260246000fd5b6001600160a01b038116811461139a57600080fd5b5056fea2646970667358221220e0d8b5619de7866754c50693b538881f3b23062a9ae93a29fd692c3cae6a17d764736f6c63430008030033",
  "devdoc": {
    "kind": "dev",
    "methods": {},
    "version": 1
  },
  "userdoc": {
    "kind": "user",
    "methods": {},
    "version": 1
  },
  "storageLayout": {
    "storage": [],
    "types": null
  }
}